{
  "_format": "hh-sol-artifact-1",
  "contractName": "LabInventory",
  "sourceName": "contracts/LabInventory.sol",
  "abi": [
    {
      "inputs": [],
      "stateMutability": "nonpayable",
      "type": "constructor"
    },
    {
      "inputs": [],
      "name": "AccessControlBadConfirmation",
      "type": "error"
    },
    {
      "inputs": [
        {
          "internalType": "address",
          "name": "account",
          "type": "address"
        },
        {
          "internalType": "bytes32",
          "name": "neededRole",
          "type": "bytes32"
        }
      ],
      "name": "AccessControlUnauthorizedAccount",
      "type": "error"
    },
    {
      "inputs": [],
      "name": "ReentrancyGuardReentrantCall",
      "type": "error"
    },
    {
      "anonymous": false,
      "inputs": [
        {
          "indexed": true,
          "internalType": "uint256",
          "name": "itemId",
          "type": "uint256"
        },
        {
          "indexed": false,
          "internalType": "string",
          "name": "name",
          "type": "string"
        },
        {
          "indexed": false,
          "internalType": "uint256",
          "name": "quantity",
          "type": "uint256"
        }
      ],
      "name": "ItemAdded",
      "type": "event"
    },
    {
      "anonymous": false,
      "inputs": [
        {
          "indexed": true,
          "internalType": "uint256",
          "name": "recordId",
          "type": "uint256"
        },
        {
          "indexed": true,
          "internalType": "uint256",
          "name": "itemId",
          "type": "uint256"
        },
        {
          "indexed": false,
          "internalType": "address",
          "name": "borrower",
          "type": "address"
        },
        {
          "indexed": false,
          "internalType": "string",
          "name": "borrowerName",
          "type": "string"
        },
        {
          "indexed": false,
          "internalType": "uint256",
          "name": "quantity",
          "type": "uint256"
        }
      ],
      "name": "ItemBorrowed",
      "type": "event"
    },
    {
      "anonymous": false,
      "inputs": [
        {
          "indexed": true,
          "internalType": "uint256",
          "name": "recordId",
          "type": "uint256"
        },
        {
          "indexed": true,
          "internalType": "uint256",
          "name": "itemId",
          "type": "uint256"
        },
        {
          "indexed": false,
          "internalType": "address",
          "name": "borrower",
          "type": "address"
        },
        {
          "indexed": false,
          "internalType": "uint256",
          "name": "quantityReturned",
          "type": "uint256"
        },
        {
          "indexed": false,
          "internalType": "uint256",
          "name": "remainingBorrowedByThisUser",
          "type": "uint256"
        }
      ],
      "name": "ItemReturned",
      "type": "event"
    },
    {
      "anonymous": false,
      "inputs": [
        {
          "indexed": true,
          "internalType": "bytes32",
          "name": "role",
          "type": "bytes32"
        },
        {
          "indexed": true,
          "internalType": "bytes32",
          "name": "previousAdminRole",
          "type": "bytes32"
        },
        {
          "indexed": true,
          "internalType": "bytes32",
          "name": "newAdminRole",
          "type": "bytes32"
        }
      ],
      "name": "RoleAdminChanged",
      "type": "event"
    },
    {
      "anonymous": false,
      "inputs": [
        {
          "indexed": true,
          "internalType": "bytes32",
          "name": "role",
          "type": "bytes32"
        },
        {
          "indexed": true,
          "internalType": "address",
          "name": "account",
          "type": "address"
        },
        {
          "indexed": true,
          "internalType": "address",
          "name": "sender",
          "type": "address"
        }
      ],
      "name": "RoleGranted",
      "type": "event"
    },
    {
      "anonymous": false,
      "inputs": [
        {
          "indexed": true,
          "internalType": "bytes32",
          "name": "role",
          "type": "bytes32"
        },
        {
          "indexed": true,
          "internalType": "address",
          "name": "account",
          "type": "address"
        },
        {
          "indexed": true,
          "internalType": "address",
          "name": "sender",
          "type": "address"
        }
      ],
      "name": "RoleRevoked",
      "type": "event"
    },
    {
      "inputs": [],
      "name": "ADMIN_ROLE",
      "outputs": [
        {
          "internalType": "bytes32",
          "name": "",
          "type": "bytes32"
        }
      ],
      "stateMutability": "view",
      "type": "function"
    },
    {
      "inputs": [],
      "name": "ASLAB_ROLE",
      "outputs": [
        {
          "internalType": "bytes32",
          "name": "",
          "type": "bytes32"
        }
      ],
      "stateMutability": "view",
      "type": "function"
    },
    {
      "inputs": [],
      "name": "DEFAULT_ADMIN_ROLE",
      "outputs": [
        {
          "internalType": "bytes32",
          "name": "",
          "type": "bytes32"
        }
      ],
      "stateMutability": "view",
      "type": "function"
    },
    {
      "inputs": [
        {
          "internalType": "address",
          "name": "_aslabAddress",
          "type": "address"
        }
      ],
      "name": "addAslab",
      "outputs": [],
      "stateMutability": "nonpayable",
      "type": "function"
    },
    {
      "inputs": [
        {
          "internalType": "string",
          "name": "_name",
          "type": "string"
        },
        {
          "internalType": "string",
          "name": "_category",
          "type": "string"
        },
        {
          "internalType": "string",
          "name": "_description",
          "type": "string"
        },
        {
          "internalType": "uint256",
          "name": "_quantity",
          "type": "uint256"
        }
      ],
      "name": "addItem",
      "outputs": [],
      "stateMutability": "nonpayable",
      "type": "function"
    },
    {
      "inputs": [
        {
          "internalType": "uint256",
          "name": "_itemId",
          "type": "uint256"
        },
        {
          "internalType": "string",
          "name": "_borrowerName",
          "type": "string"
        },
        {
          "internalType": "string",
          "name": "_purpose",
          "type": "string"
        },
        {
          "internalType": "uint256",
          "name": "_quantityToBorrow",
          "type": "uint256"
        }
      ],
      "name": "borrowItem",
      "outputs": [],
      "stateMutability": "nonpayable",
      "type": "function"
    },
    {
      "inputs": [],
      "name": "getAllItems",
      "outputs": [
        {
          "components": [
            {
              "internalType": "uint256",
              "name": "id",
              "type": "uint256"
            },
            {
              "internalType": "string",
              "name": "name",
              "type": "string"
            },
            {
              "internalType": "string",
              "name": "category",
              "type": "string"
            },
            {
              "internalType": "string",
              "name": "description",
              "type": "string"
            },
            {
              "internalType": "uint256",
              "name": "totalQuantity",
              "type": "uint256"
            },
            {
              "internalType": "uint256",
              "name": "availableQuantity",
              "type": "uint256"
            }
          ],
          "internalType": "struct LabInventory.Item[]",
          "name": "",
          "type": "tuple[]"
        }
      ],
      "stateMutability": "view",
      "type": "function"
    },
    {
      "inputs": [
        {
          "internalType": "uint256",
          "name": "_itemId",
          "type": "uint256"
        }
      ],
      "name": "getItemBorrowHistory",
      "outputs": [
        {
          "components": [
            {
              "internalType": "uint256",
              "name": "recordId",
              "type": "uint256"
            },
            {
              "internalType": "uint256",
              "name": "itemId",
              "type": "uint256"
            },
            {
              "internalType": "address",
              "name": "borrower",
              "type": "address"
            },
            {
              "internalType": "string",
              "name": "borrowerName",
              "type": "string"
            },
            {
              "internalType": "string",
              "name": "purpose",
              "type": "string"
            },
            {
              "internalType": "uint256",
              "name": "quantity",
              "type": "uint256"
            },
            {
              "internalType": "uint256",
              "name": "returnedQuantity",
              "type": "uint256"
            },
            {
              "internalType": "uint256",
              "name": "borrowTime",
              "type": "uint256"
            },
            {
              "internalType": "uint256",
              "name": "returnTime",
              "type": "uint256"
            },
            {
              "internalType": "bool",
              "name": "isReturned",
              "type": "bool"
            }
          ],
          "internalType": "struct LabInventory.BorrowRecord[]",
          "name": "",
          "type": "tuple[]"
        }
      ],
      "stateMutability": "view",
      "type": "function"
    },
    {
      "inputs": [
        {
          "internalType": "bytes32",
          "name": "role",
          "type": "bytes32"
        }
      ],
      "name": "getRoleAdmin",
      "outputs": [
        {
          "internalType": "bytes32",
          "name": "",
          "type": "bytes32"
        }
      ],
      "stateMutability": "view",
      "type": "function"
    },
    {
      "inputs": [
        {
          "internalType": "address",
          "name": "_user",
          "type": "address"
        }
      ],
      "name": "getUserBorrowedItems",
      "outputs": [
        {
          "components": [
            {
              "internalType": "uint256",
              "name": "id",
              "type": "uint256"
            },
            {
              "internalType": "string",
              "name": "name",
              "type": "string"
            },
            {
              "internalType": "string",
              "name": "category",
              "type": "string"
            },
            {
              "internalType": "string",
              "name": "description",
              "type": "string"
            },
            {
              "internalType": "uint256",
              "name": "totalQuantity",
              "type": "uint256"
            },
            {
              "internalType": "uint256",
              "name": "availableQuantity",
              "type": "uint256"
            }
          ],
          "internalType": "struct LabInventory.Item[]",
          "name": "",
          "type": "tuple[]"
        },
        {
          "internalType": "uint256[]",
          "name": "",
          "type": "uint256[]"
        }
      ],
      "stateMutability": "view",
      "type": "function"
    },
    {
      "inputs": [
        {
          "internalType": "bytes32",
          "name": "role",
          "type": "bytes32"
        },
        {
          "internalType": "address",
          "name": "account",
          "type": "address"
        }
      ],
      "name": "grantRole",
      "outputs": [],
      "stateMutability": "nonpayable",
      "type": "function"
    },
    {
      "inputs": [
        {
          "internalType": "bytes32",
          "name": "role",
          "type": "bytes32"
        },
        {
          "internalType": "address",
          "name": "account",
          "type": "address"
        }
      ],
      "name": "hasRole",
      "outputs": [
        {
          "internalType": "bool",
          "name": "",
          "type": "bool"
        }
      ],
      "stateMutability": "view",
      "type": "function"
    },
    {
      "inputs": [
        {
          "internalType": "uint256",
          "name": "",
          "type": "uint256"
        },
        {
          "internalType": "uint256",
          "name": "",
          "type": "uint256"
        }
      ],
      "name": "itemBorrowHistory",
      "outputs": [
        {
          "internalType": "uint256",
          "name": "recordId",
          "type": "uint256"
        },
        {
          "internalType": "uint256",
          "name": "itemId",
          "type": "uint256"
        },
        {
          "internalType": "address",
          "name": "borrower",
          "type": "address"
        },
        {
          "internalType": "string",
          "name": "borrowerName",
          "type": "string"
        },
        {
          "internalType": "string",
          "name": "purpose",
          "type": "string"
        },
        {
          "internalType": "uint256",
          "name": "quantity",
          "type": "uint256"
        },
        {
          "internalType": "uint256",
          "name": "returnedQuantity",
          "type": "uint256"
        },
        {
          "internalType": "uint256",
          "name": "borrowTime",
          "type": "uint256"
        },
        {
          "internalType": "uint256",
          "name": "returnTime",
          "type": "uint256"
        },
        {
          "internalType": "bool",
          "name": "isReturned",
          "type": "bool"
        }
      ],
      "stateMutability": "view",
      "type": "function"
    },
    {
      "inputs": [
        {
          "internalType": "uint256",
          "name": "",
          "type": "uint256"
        }
      ],
      "name": "items",
      "outputs": [
        {
          "internalType": "uint256",
          "name": "id",
          "type": "uint256"
        },
        {
          "internalType": "string",
          "name": "name",
          "type": "string"
        },
        {
          "internalType": "string",
          "name": "category",
          "type": "string"
        },
        {
          "internalType": "string",
          "name": "description",
          "type": "string"
        },
        {
          "internalType": "uint256",
          "name": "totalQuantity",
          "type": "uint256"
        },
        {
          "internalType": "uint256",
          "name": "availableQuantity",
          "type": "uint256"
        }
      ],
      "stateMutability": "view",
      "type": "function"
    },
    {
      "inputs": [],
      "name": "nextItemId",
      "outputs": [
        {
          "internalType": "uint256",
          "name": "",
          "type": "uint256"
        }
      ],
      "stateMutability": "view",
      "type": "function"
    },
    {
      "inputs": [],
      "name": "nextRecordId",
      "outputs": [
        {
          "internalType": "uint256",
          "name": "",
          "type": "uint256"
        }
      ],
      "stateMutability": "view",
      "type": "function"
    },
    {
      "inputs": [
        {
          "internalType": "address",
          "name": "_aslabAddress",
          "type": "address"
        }
      ],
      "name": "removeAslab",
      "outputs": [],
      "stateMutability": "nonpayable",
      "type": "function"
    },
    {
      "inputs": [
        {
          "internalType": "bytes32",
          "name": "role",
          "type": "bytes32"
        },
        {
          "internalType": "address",
          "name": "callerConfirmation",
          "type": "address"
        }
      ],
      "name": "renounceRole",
      "outputs": [],
      "stateMutability": "nonpayable",
      "type": "function"
    },
    {
      "inputs": [
        {
          "internalType": "uint256",
          "name": "_itemId",
          "type": "uint256"
        },
        {
          "internalType": "uint256",
          "name": "_quantityToReturn",
          "type": "uint256"
        }
      ],
      "name": "returnItem",
      "outputs": [],
      "stateMutability": "nonpayable",
      "type": "function"
    },
    {
      "inputs": [
        {
          "internalType": "bytes32",
          "name": "role",
          "type": "bytes32"
        },
        {
          "internalType": "address",
          "name": "account",
          "type": "address"
        }
      ],
      "name": "revokeRole",
      "outputs": [],
      "stateMutability": "nonpayable",
      "type": "function"
    },
    {
      "inputs": [
        {
          "internalType": "bytes4",
          "name": "interfaceId",
          "type": "bytes4"
        }
      ],
      "name": "supportsInterface",
      "outputs": [
        {
          "internalType": "bool",
          "name": "",
          "type": "bool"
        }
      ],
      "stateMutability": "view",
      "type": "function"
    },
    {
      "inputs": [
        {
          "internalType": "address",
          "name": "",
          "type": "address"
        },
        {
          "internalType": "uint256",
          "name": "",
          "type": "uint256"
        }
      ],
      "name": "userBorrowedCount",
      "outputs": [
        {
          "internalType": "uint256",
          "name": "",
          "type": "uint256"
        }
      ],
      "stateMutability": "view",
      "type": "function"
    }
  ],
  "bytecode": "0x60806040523480156200001157600080fd5b50600180819055506200002e6000801b33620000ca60201b60201c565b50620000617fa49807205ce4d355092ef5a8a18f56e8913cf4a201fbe287825b095693c2177533620000ca60201b60201c565b50620000b47fe82732028448bcd93776a59e3aa432a36d831bc856c48ae8771b18fcc2cf52ad7fa49807205ce4d355092ef5a8a18f56e8913cf4a201fbe287825b095693c21775620001cd60201b60201c565b60016002819055506001600381905550620002dd565b6000620000de83836200023060201b60201c565b620001c257600160008085815260200190815260200160002060000160008473ffffffffffffffffffffffffffffffffffffffff1673ffffffffffffffffffffffffffffffffffffffff16815260200190815260200160002060006101000a81548160ff0219169083151502179055506200015e6200024c60201b60201c565b73ffffffffffffffffffffffffffffffffffffffff168273ffffffffffffffffffffffffffffffffffffffff16847f2f8788117e7eff1d82e926ec794901d17c78024a50270940304540a733656f0d60405160405180910390a460019050620001c7565b600090505b92915050565b6000620001e0836200025460201b60201c565b905081600080858152602001908152602001600020600101819055508181847fbd79b86ffe0ab8e8776151514217cd7cacd52c909f66475c3af44e129f0b00ff60405160405180910390a4505050565b60006200024483836200027360201b60201c565b905092915050565b600033905090565b6000806000838152602001908152602001600020600101549050919050565b600080600084815260200190815260200160002060000160008373ffffffffffffffffffffffffffffffffffffffff1673ffffffffffffffffffffffffffffffffffffffff16815260200190815260200160002060009054906101000a900460ff16905092915050565b61373280620002ed6000396000f3fe608060405234801561001057600080fd5b50600436106101425760003560e01c80638218ab7b116100b8578063a217fddf1161007c578063a217fddf146103a5578063b066c46f146103c3578063bfb231d2146103df578063d547741f14610414578063dbde207d14610430578063de59c3221461044e57610142565b80638218ab7b146102bd5780638e97d3da146102db57806391d148541461030c57806393d926e51461033c57806399c334671461037557610142565b806336568abe1161010a57806336568abe1461020f5780634ba1d6aa1461022b5780634c094947146102495780636265db2f146102655780636a8689741461028157806375b238fc1461029f57610142565b806301ffc9a714610147578063044a3fa914610177578063248a9ca3146101935780632f2ff15d146101c357806333e1a2e1146101df575b600080fd5b610161600480360381019061015c9190612248565b61046a565b60405161016e9190612290565b60405180910390f35b610191600480360381019061018c9190612309565b6104e4565b005b6101ad60048036038101906101a8919061236c565b61053c565b6040516101ba91906123a8565b60405180910390f35b6101dd60048036038101906101d891906123c3565b61055b565b005b6101f960048036038101906101f49190612439565b61057d565b60405161020691906126c6565b60405180910390f35b610229600480360381019061022491906123c3565b610811565b005b61023361088c565b6040516102409190612841565b60405180910390f35b610263600480360381019061025e9190612309565b610ba5565b005b61027f600480360381019061027a9190612998565b610bfd565b005b610289610ddb565b6040516102969190612a62565b60405180910390f35b6102a7610de1565b6040516102b491906123a8565b60405180910390f35b6102c5610e05565b6040516102d291906123a8565b60405180910390f35b6102f560048036038101906102f09190612309565b610e29565b604051610303929190612b2c565b60405180910390f35b610326600480360381019061032191906123c3565b61127c565b6040516103339190612290565b60405180910390f35b61035660048036038101906103519190612b63565b611290565b60405161036c9a99989796959493929190612bfc565b60405180910390f35b61038f600480360381019061038a9190612ca6565b61143e565b60405161039c9190612a62565b60405180910390f35b6103ad611463565b6040516103ba91906123a8565b60405180910390f35b6103dd60048036038101906103d89190612ce6565b61146a565b005b6103f960048036038101906103f49190612439565b611804565b60405161040b96959493929190612d85565b60405180910390f35b61042e600480360381019061042991906123c3565b6119d8565b005b6104386119fa565b6040516104459190612a62565b60405180910390f35b61046860048036038101906104639190612b63565b611a00565b005b60007f7965db0b000000000000000000000000000000000000000000000000000000007bffffffffffffffffffffffffffffffffffffffffffffffffffffffff1916827bffffffffffffffffffffffffffffffffffffffffffffffffffffffff191614806104dd57506104dc82611e33565b5b9050919050565b7fa49807205ce4d355092ef5a8a18f56e8913cf4a201fbe287825b095693c2177561050e81611e9d565b6105387fe82732028448bcd93776a59e3aa432a36d831bc856c48ae8771b18fcc2cf52ad8361055b565b5050565b6000806000838152602001908152602001600020600101549050919050565b6105648261053c565b61056d81611e9d565b6105778383611eb1565b50505050565b6060600082118015610590575060025482105b6105cf576040517f08c379a00000000000000000000000000000000000000000000000000000000081526004016105c690612e47565b60405180910390fd5b60056000838152602001908152602001600020805480602002602001604051908101604052809291908181526020016000905b8282101561080657838290600052602060002090600a02016040518061014001604052908160008201548152602001600182015481526020016002820160009054906101000a900473ffffffffffffffffffffffffffffffffffffffff1673ffffffffffffffffffffffffffffffffffffffff1673ffffffffffffffffffffffffffffffffffffffff1681526020016003820180546106a090612e96565b80601f01602080910402602001604051908101604052809291908181526020018280546106cc90612e96565b80156107195780601f106106ee57610100808354040283529160200191610719565b820191906000526020600020905b8154815290600101906020018083116106fc57829003601f168201915b5050505050815260200160048201805461073290612e96565b80601f016020809104026020016040519081016040528092919081815260200182805461075e90612e96565b80156107ab5780601f10610780576101008083540402835291602001916107ab565b820191906000526020600020905b81548152906001019060200180831161078e57829003601f168201915b50505050508152602001600582015481526020016006820154815260200160078201548152602001600882015481526020016009820160009054906101000a900460ff16151515158152505081526020019060010190610602565b505050509050919050565b610819611fa2565b73ffffffffffffffffffffffffffffffffffffffff168173ffffffffffffffffffffffffffffffffffffffff161461087d576040517f6697b23200000000000000000000000000000000000000000000000000000000815260040160405180910390fd5b6108878282611faa565b505050565b6060600080600190505b6002548110156108e05760006004600083815260200190815260200160002060000154146108cd5781806108c990612ef6565b9250505b80806108d890612ef6565b915050610896565b5060008167ffffffffffffffff8111156108fd576108fc61286d565b5b60405190808252806020026020018201604052801561093657816020015b6109236121a6565b81526020019060019003908161091b5790505b509050600080600190505b600254811015610b9b576000600460008381526020019081526020016000206000015414610b8857600460008281526020019081526020016000206040518060c0016040529081600082015481526020016001820180546109a190612e96565b80601f01602080910402602001604051908101604052809291908181526020018280546109cd90612e96565b8015610a1a5780601f106109ef57610100808354040283529160200191610a1a565b820191906000526020600020905b8154815290600101906020018083116109fd57829003601f168201915b50505050508152602001600282018054610a3390612e96565b80601f0160208091040260200160405190810160405280929190818152602001828054610a5f90612e96565b8015610aac5780601f10610a8157610100808354040283529160200191610aac565b820191906000526020600020905b815481529060010190602001808311610a8f57829003601f168201915b50505050508152602001600382018054610ac590612e96565b80601f0160208091040260200160405190810160405280929190818152602001828054610af190612e96565b8015610b3e5780601f10610b1357610100808354040283529160200191610b3e565b820191906000526020600020905b815481529060010190602001808311610b2157829003601f168201915b5050505050815260200160048201548152602001600582015481525050838381518110610b6e57610b6d612f3e565b5b60200260200101819052508180610b8490612ef6565b9250505b8080610b9390612ef6565b915050610941565b5081935050505090565b7fa49807205ce4d355092ef5a8a18f56e8913cf4a201fbe287825b095693c21775610bcf81611e9d565b610bf97fe82732028448bcd93776a59e3aa432a36d831bc856c48ae8771b18fcc2cf52ad836119d8565b5050565b610c277fa49807205ce4d355092ef5a8a18f56e8913cf4a201fbe287825b095693c217753361127c565b80610c585750610c577fe82732028448bcd93776a59e3aa432a36d831bc856c48ae8771b18fcc2cf52ad3361127c565b5b610c97576040517f08c379a0000000000000000000000000000000000000000000000000000000008152600401610c8e90612fb9565b60405180910390fd5b60008111610cda576040517f08c379a0000000000000000000000000000000000000000000000000000000008152600401610cd190613025565b60405180910390fd5b6040518060c00160405280600254815260200185815260200184815260200183815260200182815260200182815250600460006002548152602001908152602001600020600082015181600001556020820151816001019081610d3d91906131f1565b506040820151816002019081610d5391906131f1565b506060820151816003019081610d6991906131f1565b506080820151816004015560a082015181600501559050506002547f0444434676a57f70f8479401c50fb4add3e31052f88f4b35e155b7759e5968e58583604051610db59291906132c3565b60405180910390a260026000815480929190610dd090612ef6565b919050555050505050565b60025481565b7fa49807205ce4d355092ef5a8a18f56e8913cf4a201fbe287825b095693c2177581565b7fe82732028448bcd93776a59e3aa432a36d831bc856c48ae8771b18fcc2cf52ad81565b606080600080600190505b600254811015610eb9576000600660008773ffffffffffffffffffffffffffffffffffffffff1673ffffffffffffffffffffffffffffffffffffffff1681526020019081526020016000206000838152602001908152602001600020541115610ea6578180610ea290612ef6565b9250505b8080610eb190612ef6565b915050610e34565b5060008167ffffffffffffffff811115610ed657610ed561286d565b5b604051908082528060200260200182016040528015610f0f57816020015b610efc6121a6565b815260200190600190039081610ef45790505b50905060008267ffffffffffffffff811115610f2e57610f2d61286d565b5b604051908082528060200260200182016040528015610f5c5781602001602082028036833780820191505090505b509050600080600190505b60025481101561126c576000600660008a73ffffffffffffffffffffffffffffffffffffffff1673ffffffffffffffffffffffffffffffffffffffff168152602001908152602001600020600083815260200190815260200160002054111561125957600460008281526020019081526020016000206040518060c00160405290816000820154815260200160018201805461100290612e96565b80601f016020809104026020016040519081016040528092919081815260200182805461102e90612e96565b801561107b5780601f106110505761010080835404028352916020019161107b565b820191906000526020600020905b81548152906001019060200180831161105e57829003601f168201915b5050505050815260200160028201805461109490612e96565b80601f01602080910402602001604051908101604052809291908181526020018280546110c090612e96565b801561110d5780601f106110e25761010080835404028352916020019161110d565b820191906000526020600020905b8154815290600101906020018083116110f057829003601f168201915b5050505050815260200160038201805461112690612e96565b80601f016020809104026020016040519081016040528092919081815260200182805461115290612e96565b801561119f5780601f106111745761010080835404028352916020019161119f565b820191906000526020600020905b81548152906001019060200180831161118257829003601f168201915b50505050508152602001600482015481526020016005820154815250508483815181106111cf576111ce612f3e565b5b6020026020010181905250600660008973ffffffffffffffffffffffffffffffffffffffff1673ffffffffffffffffffffffffffffffffffffffff16815260200190815260200160002060008281526020019081526020016000205483838151811061123e5761123d612f3e565b5b602002602001018181525050818061125590612ef6565b9250505b808061126490612ef6565b915050610f67565b5082829550955050505050915091565b6000611288838361209c565b905092915050565b600560205281600052604060002081815481106112ac57600080fd5b90600052602060002090600a0201600091509150508060000154908060010154908060020160009054906101000a900473ffffffffffffffffffffffffffffffffffffffff169080600301805461130290612e96565b80601f016020809104026020016040519081016040528092919081815260200182805461132e90612e96565b801561137b5780601f106113505761010080835404028352916020019161137b565b820191906000526020600020905b81548152906001019060200180831161135e57829003601f168201915b50505050509080600401805461139090612e96565b80601f01602080910402602001604051908101604052809291908181526020018280546113bc90612e96565b80156114095780601f106113de57610100808354040283529160200191611409565b820191906000526020600020905b8154815290600101906020018083116113ec57829003601f168201915b5050505050908060050154908060060154908060070154908060080154908060090160009054906101000a900460ff1690508a565b6006602052816000526040600020602052806000526040600020600091509150505481565b6000801b81565b611472612106565b600084118015611483575060025484105b6114c2576040517f08c379a00000000000000000000000000000000000000000000000000000000081526004016114b990612e47565b60405180910390fd5b60006004600086815260200190815260200160002090506000816000015403611520576040517f08c379a00000000000000000000000000000000000000000000000000000000081526004016115179061333f565b60405180910390fd5b60008211611563576040517f08c379a000000000000000000000000000000000000000000000000000000000815260040161155a906133d1565b60405180910390fd5b81816005015410156115aa576040517f08c379a00000000000000000000000000000000000000000000000000000000081526004016115a190613463565b60405180910390fd5b818160050160008282546115be9190613483565b9250508190555081600660003373ffffffffffffffffffffffffffffffffffffffff1673ffffffffffffffffffffffffffffffffffffffff1681526020019081526020016000206000878152602001908152602001600020600082825461162591906134b7565b925050819055506005600086815260200190815260200160002060405180610140016040528060035481526020018781526020013373ffffffffffffffffffffffffffffffffffffffff16815260200186815260200185815260200184815260200160008152602001428152602001600081526020016000151581525090806001815401808255809150506001900390600052602060002090600a0201600090919091909150600082015181600001556020820151816001015560408201518160020160006101000a81548173ffffffffffffffffffffffffffffffffffffffff021916908373ffffffffffffffffffffffffffffffffffffffff160217905550606082015181600301908161173b91906131f1565b50608082015181600401908161175191906131f1565b5060a0820151816005015560c0820151816006015560e0820151816007015561010082015181600801556101208201518160090160006101000a81548160ff0219169083151502179055505050846003547fff72495a002a4f2216df7a5260b165345f457f072a95c6798671933ee2f8a3413387866040516117d5939291906134eb565b60405180910390a3600360008154809291906117f090612ef6565b9190505550506117fe61214c565b50505050565b600460205280600052604060002060009150905080600001549080600101805461182d90612e96565b80601f016020809104026020016040519081016040528092919081815260200182805461185990612e96565b80156118a65780601f1061187b576101008083540402835291602001916118a6565b820191906000526020600020905b81548152906001019060200180831161188957829003601f168201915b5050505050908060020180546118bb90612e96565b80601f01602080910402602001604051908101604052809291908181526020018280546118e790612e96565b80156119345780601f1061190957610100808354040283529160200191611934565b820191906000526020600020905b81548152906001019060200180831161191757829003601f168201915b50505050509080600301805461194990612e96565b80601f016020809104026020016040519081016040528092919081815260200182805461197590612e96565b80156119c25780601f10611997576101008083540402835291602001916119c2565b820191906000526020600020905b8154815290600101906020018083116119a557829003601f168201915b5050505050908060040154908060050154905086565b6119e18261053c565b6119ea81611e9d565b6119f48383611faa565b50505050565b60035481565b611a08612106565b600082118015611a19575060025482105b611a58576040517f08c379a0000000000000000000000000000000000000000000000000000000008152600401611a4f90612e47565b60405180910390fd5b60006004600084815260200190815260200160002090506000816000015403611ab6576040517f08c379a0000000000000000000000000000000000000000000000000000000008152600401611aad9061333f565b60405180910390fd5b60008211611af9576040517f08c379a0000000000000000000000000000000000000000000000000000000008152600401611af09061359b565b60405180910390fd5b81600660003373ffffffffffffffffffffffffffffffffffffffff1673ffffffffffffffffffffffffffffffffffffffff1681526020019081526020016000206000858152602001908152602001600020541015611b8c576040517f08c379a0000000000000000000000000000000000000000000000000000000008152600401611b8390613653565b60405180910390fd5b81816005016000828254611ba091906134b7565b9250508190555081600660003373ffffffffffffffffffffffffffffffffffffffff1673ffffffffffffffffffffffffffffffffffffffff16815260200190815260200160002060008581526020019081526020016000206000828254611c079190613483565b9250508190555060008290506000600560008681526020019081526020016000208054905090505b600081118015611c3f5750600082115b15611e2457600060056000878152602001908152602001600020600183611c669190613483565b81548110611c7757611c76612f3e565b5b90600052602060002090600a020190503373ffffffffffffffffffffffffffffffffffffffff168160020160009054906101000a900473ffffffffffffffffffffffffffffffffffffffff1673ffffffffffffffffffffffffffffffffffffffff16148015611ced575080600501548160060154105b15611e1057600081600601548260050154611d089190613483565b90506000818510611d195781611d1b565b845b905080836006016000828254611d3191906134b7565b925050819055508085611d449190613483565b94508260050154836006015403611d7c5760018360090160006101000a81548160ff0219169083151502179055504283600801819055505b8783600001547f32ad0a4875d58be0f4cc1c25b438c5fc6bcca8e8ab8f9c816e93ba94e7dbe5a23384600660003373ffffffffffffffffffffffffffffffffffffffff1673ffffffffffffffffffffffffffffffffffffffff16815260200190815260200160002060008e815260200190815260200160002054604051611e0593929190613673565b60405180910390a350505b508080611e1c906136aa565b915050611c2f565b505050611e2f61214c565b5050565b60007f01ffc9a7000000000000000000000000000000000000000000000000000000007bffffffffffffffffffffffffffffffffffffffffffffffffffffffff1916827bffffffffffffffffffffffffffffffffffffffffffffffffffffffff1916149050919050565b611eae81611ea9611fa2565b612155565b50565b6000611ebd838361127c565b611f9757600160008085815260200190815260200160002060000160008473ffffffffffffffffffffffffffffffffffffffff1673ffffffffffffffffffffffffffffffffffffffff16815260200190815260200160002060006101000a81548160ff021916908315150217905550611f34611fa2565b73ffffffffffffffffffffffffffffffffffffffff168273ffffffffffffffffffffffffffffffffffffffff16847f2f8788117e7eff1d82e926ec794901d17c78024a50270940304540a733656f0d60405160405180910390a460019050611f9c565b600090505b92915050565b600033905090565b6000611fb6838361127c565b1561209157600080600085815260200190815260200160002060000160008473ffffffffffffffffffffffffffffffffffffffff1673ffffffffffffffffffffffffffffffffffffffff16815260200190815260200160002060006101000a81548160ff02191690831515021790555061202e611fa2565b73ffffffffffffffffffffffffffffffffffffffff168273ffffffffffffffffffffffffffffffffffffffff16847ff6391f5c32d9c69d2a47ea670b442974b53935d1edc7fd64eb21e047a839171b60405160405180910390a460019050612096565b600090505b92915050565b600080600084815260200190815260200160002060000160008373ffffffffffffffffffffffffffffffffffffffff1673ffffffffffffffffffffffffffffffffffffffff16815260200190815260200160002060009054906101000a900460ff16905092915050565b600260015403612142576040517f3ee5aeb500000000000000000000000000000000000000000000000000000000815260040160405180910390fd5b6002600181905550565b60018081905550565b61215f828261127c565b6121a25780826040517fe2517d3f0000000000000000000000000000000000000000000000000000000081526004016121999291906136d3565b60405180910390fd5b5050565b6040518060c001604052806000815260200160608152602001606081526020016060815260200160008152602001600081525090565b6000604051905090565b600080fd5b600080fd5b60007fffffffff0000000000000000000000000000000000000000000000000000000082169050919050565b612225816121f0565b811461223057600080fd5b50565b6000813590506122428161221c565b92915050565b60006020828403121561225e5761225d6121e6565b5b600061226c84828501612233565b91505092915050565b60008115159050919050565b61228a81612275565b82525050565b60006020820190506122a56000830184612281565b92915050565b600073ffffffffffffffffffffffffffffffffffffffff82169050919050565b60006122d6826122ab565b9050919050565b6122e6816122cb565b81146122f157600080fd5b50565b600081359050612303816122dd565b92915050565b60006020828403121561231f5761231e6121e6565b5b600061232d848285016122f4565b91505092915050565b6000819050919050565b61234981612336565b811461235457600080fd5b50565b60008135905061236681612340565b92915050565b600060208284031215612382576123816121e6565b5b600061239084828501612357565b91505092915050565b6123a281612336565b82525050565b60006020820190506123bd6000830184612399565b92915050565b600080604083850312156123da576123d96121e6565b5b60006123e885828601612357565b92505060206123f9858286016122f4565b9150509250929050565b6000819050919050565b61241681612403565b811461242157600080fd5b50565b6000813590506124338161240d565b92915050565b60006020828403121561244f5761244e6121e6565b5b600061245d84828501612424565b91505092915050565b600081519050919050565b600082825260208201905092915050565b6000819050602082019050919050565b61249b81612403565b82525050565b6124aa816122cb565b82525050565b600081519050919050565b600082825260208201905092915050565b60005b838110156124ea5780820151818401526020810190506124cf565b60008484015250505050565b6000601f19601f8301169050919050565b6000612512826124b0565b61251c81856124bb565b935061252c8185602086016124cc565b612535816124f6565b840191505092915050565b61254981612275565b82525050565b6000610140830160008301516125686000860182612492565b50602083015161257b6020860182612492565b50604083015161258e60408601826124a1565b50606083015184820360608601526125a68282612507565b915050608083015184820360808601526125c08282612507565b91505060a08301516125d560a0860182612492565b5060c08301516125e860c0860182612492565b5060e08301516125fb60e0860182612492565b50610100830151612610610100860182612492565b50610120830151612625610120860182612540565b508091505092915050565b600061263c838361254f565b905092915050565b6000602082019050919050565b600061265c82612466565b6126668185612471565b93508360208202850161267885612482565b8060005b858110156126b457848403895281516126958582612630565b94506126a083612644565b925060208a0199505060018101905061267c565b50829750879550505050505092915050565b600060208201905081810360008301526126e08184612651565b905092915050565b600081519050919050565b600082825260208201905092915050565b6000819050602082019050919050565b600060c08301600083015161272c6000860182612492565b50602083015184820360208601526127448282612507565b9150506040830151848203604086015261275e8282612507565b915050606083015184820360608601526127788282612507565b915050608083015161278d6080860182612492565b5060a08301516127a060a0860182612492565b508091505092915050565b60006127b78383612714565b905092915050565b6000602082019050919050565b60006127d7826126e8565b6127e181856126f3565b9350836020820285016127f385612704565b8060005b8581101561282f578484038952815161281085826127ab565b945061281b836127bf565b925060208a019950506001810190506127f7565b50829750879550505050505092915050565b6000602082019050818103600083015261285b81846127cc565b905092915050565b600080fd5b600080fd5b7f4e487b7100000000000000000000000000000000000000000000000000000000600052604160045260246000fd5b6128a5826124f6565b810181811067ffffffffffffffff821117156128c4576128c361286d565b5b80604052505050565b60006128d76121dc565b90506128e3828261289c565b919050565b600067ffffffffffffffff8211156129035761290261286d565b5b61290c826124f6565b9050602081019050919050565b82818337600083830152505050565b600061293b612936846128e8565b6128cd565b90508281526020810184848401111561295757612956612868565b5b612962848285612919565b509392505050565b600082601f83011261297f5761297e612863565b5b813561298f848260208601612928565b91505092915050565b600080600080608085870312156129b2576129b16121e6565b5b600085013567ffffffffffffffff8111156129d0576129cf6121eb565b5b6129dc8782880161296a565b945050602085013567ffffffffffffffff8111156129fd576129fc6121eb565b5b612a098782880161296a565b935050604085013567ffffffffffffffff811115612a2a57612a296121eb565b5b612a368782880161296a565b9250506060612a4787828801612424565b91505092959194509250565b612a5c81612403565b82525050565b6000602082019050612a776000830184612a53565b92915050565b600081519050919050565b600082825260208201905092915050565b6000819050602082019050919050565b6000612ab58383612492565b60208301905092915050565b6000602082019050919050565b6000612ad982612a7d565b612ae38185612a88565b9350612aee83612a99565b8060005b83811015612b1f578151612b068882612aa9565b9750612b1183612ac1565b925050600181019050612af2565b5085935050505092915050565b60006040820190508181036000830152612b4681856127cc565b90508181036020830152612b5a8184612ace565b90509392505050565b60008060408385031215612b7a57612b796121e6565b5b6000612b8885828601612424565b9250506020612b9985828601612424565b9150509250929050565b612bac816122cb565b82525050565b600082825260208201905092915050565b6000612bce826124b0565b612bd88185612bb2565b9350612be88185602086016124cc565b612bf1816124f6565b840191505092915050565b600061014082019050612c12600083018d612a53565b612c1f602083018c612a53565b612c2c604083018b612ba3565b8181036060830152612c3e818a612bc3565b90508181036080830152612c528189612bc3565b9050612c6160a0830188612a53565b612c6e60c0830187612a53565b612c7b60e0830186612a53565b612c89610100830185612a53565b612c97610120830184612281565b9b9a5050505050505050505050565b60008060408385031215612cbd57612cbc6121e6565b5b6000612ccb858286016122f4565b9250506020612cdc85828601612424565b9150509250929050565b60008060008060808587031215612d0057612cff6121e6565b5b6000612d0e87828801612424565b945050602085013567ffffffffffffffff811115612d2f57612d2e6121eb565b5b612d3b8782880161296a565b935050604085013567ffffffffffffffff811115612d5c57612d5b6121eb565b5b612d688782880161296a565b9250506060612d7987828801612424565b91505092959194509250565b600060c082019050612d9a6000830189612a53565b8181036020830152612dac8188612bc3565b90508181036040830152612dc08187612bc3565b90508181036060830152612dd48186612bc3565b9050612de36080830185612a53565b612df060a0830184612a53565b979650505050505050565b7f4974656d20646f6573206e6f7420657869737400000000000000000000000000600082015250565b6000612e31601383612bb2565b9150612e3c82612dfb565b602082019050919050565b60006020820190508181036000830152612e6081612e24565b9050919050565b7f4e487b7100000000000000000000000000000000000000000000000000000000600052602260045260246000fd5b60006002820490506001821680612eae57607f821691505b602082108103612ec157612ec0612e67565b5b50919050565b7f4e487b7100000000000000000000000000000000000000000000000000000000600052601160045260246000fd5b6000612f0182612403565b91507fffffffffffffffffffffffffffffffffffffffffffffffffffffffffffffffff8203612f3357612f32612ec7565b5b600182019050919050565b7f4e487b7100000000000000000000000000000000000000000000000000000000600052603260045260246000fd5b7f43616c6c6572206973206e6f7420616e2061646d696e206f722061736c616200600082015250565b6000612fa3601f83612bb2565b9150612fae82612f6d565b602082019050919050565b60006020820190508181036000830152612fd281612f96565b9050919050565b7f5175616e74697479206d7573742062652067726561746572207468616e203000600082015250565b600061300f601f83612bb2565b915061301a82612fd9565b602082019050919050565b6000602082019050818103600083015261303e81613002565b9050919050565b60008190508160005260206000209050919050565b60006020601f8301049050919050565b600082821b905092915050565b6000600883026130a77fffffffffffffffffffffffffffffffffffffffffffffffffffffffffffffffff8261306a565b6130b1868361306a565b95508019841693508086168417925050509392505050565b6000819050919050565b60006130ee6130e96130e484612403565b6130c9565b612403565b9050919050565b6000819050919050565b613108836130d3565b61311c613114826130f5565b848454613077565b825550505050565b600090565b613131613124565b61313c8184846130ff565b505050565b5b8181101561316057613155600082613129565b600181019050613142565b5050565b601f8211156131a55761317681613045565b61317f8461305a565b8101602085101561318e578190505b6131a261319a8561305a565b830182613141565b50505b505050565b600082821c905092915050565b60006131c8600019846008026131aa565b1980831691505092915050565b60006131e183836131b7565b9150826002028217905092915050565b6131fa826124b0565b67ffffffffffffffff8111156132135761321261286d565b5b61321d8254612e96565b613228828285613164565b600060209050601f83116001811461325b5760008415613249578287015190505b61325385826131d5565b8655506132bb565b601f19841661326986613045565b60005b828110156132915784890151825560018201915060208501945060208101905061326c565b868310156132ae57848901516132aa601f8916826131b7565b8355505b6001600288020188555050505b505050505050565b600060408201905081810360008301526132dd8185612bc3565b90506132ec6020830184612a53565b9392505050565b7f4974656d20646f6573206e6f742065786973742028696e76616c696420494429600082015250565b6000613329602083612bb2565b9150613334826132f3565b602082019050919050565b600060208201905081810360008301526133588161331c565b9050919050565b7f5175616e7469747920746f20626f72726f77206d75737420626520677265617460008201527f6572207468616e20300000000000000000000000000000000000000000000000602082015250565b60006133bb602983612bb2565b91506133c68261335f565b604082019050919050565b600060208201905081810360008301526133ea816133ae565b9050919050565b7f4974656d206e6f7420617661696c61626c6520696e2074686973207175616e7460008201527f6974790000000000000000000000000000000000000000000000000000000000602082015250565b600061344d602383612bb2565b9150613458826133f1565b604082019050919050565b6000602082019050818103600083015261347c81613440565b9050919050565b600061348e82612403565b915061349983612403565b92508282039050818111156134b1576134b0612ec7565b5b92915050565b60006134c282612403565b91506134cd83612403565b92508282019050808211156134e5576134e4612ec7565b5b92915050565b60006060820190506135006000830186612ba3565b81810360208301526135128185612bc3565b90506135216040830184612a53565b949350505050565b7f5175616e7469747920746f2072657475726e206d75737420626520677265617460008201527f6572207468616e20300000000000000000000000000000000000000000000000602082015250565b6000613585602983612bb2565b915061359082613529565b604082019050919050565b600060208201905081810360008301526135b481613578565b9050919050565b7f596f752061726520747279696e6720746f2072657475726e206d6f726520746860008201527f616e20796f7520626f72726f7765642c206f722068617665206e6f7420626f7260208201527f726f7765642074686973206974656d0000000000000000000000000000000000604082015250565b600061363d604f83612bb2565b9150613648826135bb565b606082019050919050565b6000602082019050818103600083015261366c81613630565b9050919050565b60006060820190506136886000830186612ba3565b6136956020830185612a53565b6136a26040830184612a53565b949350505050565b60006136b582612403565b9150600082036136c8576136c7612ec7565b5b600182039050919050565b60006040820190506136e86000830185612ba3565b6136f56020830184612399565b939250505056fea26469706673582212209ec6387be1033a62b6de0391f0ecbea6e784216090eed32fb01c6147b1d0e9b264736f6c63430008140033",
  "linkReferences": {},
  "deployedLinkReferences": {}
}