{
  "_format": "hh-sol-artifact-1",
  "contractName": "LabInventory",
  "sourceName": "contracts/LabInventory.sol",
  "abi": [
    {
      "inputs": [],
      "stateMutability": "nonpayable",
      "type": "constructor"
    },
    {
      "inputs": [],
      "name": "AccessControlBadConfirmation",
      "type": "error"
    },
    {
      "inputs": [
        {
          "internalType": "address",
          "name": "account",
          "type": "address"
        },
        {
          "internalType": "bytes32",
          "name": "neededRole",
          "type": "bytes32"
        }
      ],
      "name": "AccessControlUnauthorizedAccount",
      "type": "error"
    },
    {
      "inputs": [],
      "name": "ReentrancyGuardReentrantCall",
      "type": "error"
    },
    {
      "anonymous": false,
      "inputs": [
        {
          "indexed": true,
          "internalType": "uint256",
          "name": "itemId",
          "type": "uint256"
        },
        {
          "indexed": false,
          "internalType": "string",
          "name": "name",
          "type": "string"
        },
        {
          "indexed": false,
          "internalType": "uint256",
          "name": "quantity",
          "type": "uint256"
        }
      ],
      "name": "ItemAdded",
      "type": "event"
    },
    {
      "anonymous": false,
      "inputs": [
        {
          "indexed": true,
          "internalType": "uint256",
          "name": "recordId",
          "type": "uint256"
        },
        {
          "indexed": true,
          "internalType": "uint256",
          "name": "itemId",
          "type": "uint256"
        },
        {
          "indexed": false,
          "internalType": "address",
          "name": "borrower",
          "type": "address"
        },
        {
          "indexed": false,
          "internalType": "string",
          "name": "borrowerName",
          "type": "string"
        }
      ],
      "name": "ItemBorrowed",
      "type": "event"
    },
    {
      "anonymous": false,
      "inputs": [
        {
          "indexed": true,
          "internalType": "uint256",
          "name": "recordId",
          "type": "uint256"
        },
        {
          "indexed": true,
          "internalType": "uint256",
          "name": "itemId",
          "type": "uint256"
        },
        {
          "indexed": false,
          "internalType": "address",
          "name": "borrower",
          "type": "address"
        }
      ],
      "name": "ItemReturned",
      "type": "event"
    },
    {
      "anonymous": false,
      "inputs": [
        {
          "indexed": true,
          "internalType": "bytes32",
          "name": "role",
          "type": "bytes32"
        },
        {
          "indexed": true,
          "internalType": "bytes32",
          "name": "previousAdminRole",
          "type": "bytes32"
        },
        {
          "indexed": true,
          "internalType": "bytes32",
          "name": "newAdminRole",
          "type": "bytes32"
        }
      ],
      "name": "RoleAdminChanged",
      "type": "event"
    },
    {
      "anonymous": false,
      "inputs": [
        {
          "indexed": true,
          "internalType": "bytes32",
          "name": "role",
          "type": "bytes32"
        },
        {
          "indexed": true,
          "internalType": "address",
          "name": "account",
          "type": "address"
        },
        {
          "indexed": true,
          "internalType": "address",
          "name": "sender",
          "type": "address"
        }
      ],
      "name": "RoleGranted",
      "type": "event"
    },
    {
      "anonymous": false,
      "inputs": [
        {
          "indexed": true,
          "internalType": "bytes32",
          "name": "role",
          "type": "bytes32"
        },
        {
          "indexed": true,
          "internalType": "address",
          "name": "account",
          "type": "address"
        },
        {
          "indexed": true,
          "internalType": "address",
          "name": "sender",
          "type": "address"
        }
      ],
      "name": "RoleRevoked",
      "type": "event"
    },
    {
      "inputs": [],
      "name": "ADMIN_ROLE",
      "outputs": [
        {
          "internalType": "bytes32",
          "name": "",
          "type": "bytes32"
        }
      ],
      "stateMutability": "view",
      "type": "function"
    },
    {
      "inputs": [],
      "name": "ASLAB_ROLE",
      "outputs": [
        {
          "internalType": "bytes32",
          "name": "",
          "type": "bytes32"
        }
      ],
      "stateMutability": "view",
      "type": "function"
    },
    {
      "inputs": [],
      "name": "DEFAULT_ADMIN_ROLE",
      "outputs": [
        {
          "internalType": "bytes32",
          "name": "",
          "type": "bytes32"
        }
      ],
      "stateMutability": "view",
      "type": "function"
    },
    {
      "inputs": [
        {
          "internalType": "address",
          "name": "_aslabAddress",
          "type": "address"
        }
      ],
      "name": "addAslab",
      "outputs": [],
      "stateMutability": "nonpayable",
      "type": "function"
    },
    {
      "inputs": [
        {
          "internalType": "string",
          "name": "_name",
          "type": "string"
        },
        {
          "internalType": "string",
          "name": "_category",
          "type": "string"
        },
        {
          "internalType": "string",
          "name": "_description",
          "type": "string"
        },
        {
          "internalType": "string",
          "name": "_location",
          "type": "string"
        },
        {
          "internalType": "uint256",
          "name": "_quantity",
          "type": "uint256"
        }
      ],
      "name": "addItem",
      "outputs": [],
      "stateMutability": "nonpayable",
      "type": "function"
    },
    {
      "inputs": [
        {
          "internalType": "uint256",
          "name": "_itemId",
          "type": "uint256"
        },
        {
          "internalType": "string",
          "name": "_borrowerName",
          "type": "string"
        },
        {
          "internalType": "string",
          "name": "_purpose",
          "type": "string"
        }
      ],
      "name": "borrowItem",
      "outputs": [],
      "stateMutability": "nonpayable",
      "type": "function"
    },
    {
      "inputs": [],
      "name": "getAllItems",
      "outputs": [
        {
          "components": [
            {
              "internalType": "uint256",
              "name": "id",
              "type": "uint256"
            },
            {
              "internalType": "string",
              "name": "name",
              "type": "string"
            },
            {
              "internalType": "string",
              "name": "category",
              "type": "string"
            },
            {
              "internalType": "string",
              "name": "description",
              "type": "string"
            },
            {
              "internalType": "string",
              "name": "location",
              "type": "string"
            },
            {
              "internalType": "uint256",
              "name": "totalQuantity",
              "type": "uint256"
            },
            {
              "internalType": "uint256",
              "name": "availableQuantity",
              "type": "uint256"
            }
          ],
          "internalType": "struct LabInventory.Item[]",
          "name": "",
          "type": "tuple[]"
        }
      ],
      "stateMutability": "view",
      "type": "function"
    },
    {
      "inputs": [
        {
          "internalType": "uint256",
          "name": "_itemId",
          "type": "uint256"
        }
      ],
      "name": "getItemBorrowHistory",
      "outputs": [
        {
          "components": [
            {
              "internalType": "uint256",
              "name": "recordId",
              "type": "uint256"
            },
            {
              "internalType": "uint256",
              "name": "itemId",
              "type": "uint256"
            },
            {
              "internalType": "address",
              "name": "borrower",
              "type": "address"
            },
            {
              "internalType": "string",
              "name": "borrowerName",
              "type": "string"
            },
            {
              "internalType": "string",
              "name": "purpose",
              "type": "string"
            },
            {
              "internalType": "uint256",
              "name": "borrowTime",
              "type": "uint256"
            },
            {
              "internalType": "uint256",
              "name": "returnTime",
              "type": "uint256"
            },
            {
              "internalType": "bool",
              "name": "isReturned",
              "type": "bool"
            }
          ],
          "internalType": "struct LabInventory.BorrowRecord[]",
          "name": "",
          "type": "tuple[]"
        }
      ],
      "stateMutability": "view",
      "type": "function"
    },
    {
      "inputs": [
        {
          "internalType": "bytes32",
          "name": "role",
          "type": "bytes32"
        }
      ],
      "name": "getRoleAdmin",
      "outputs": [
        {
          "internalType": "bytes32",
          "name": "",
          "type": "bytes32"
        }
      ],
      "stateMutability": "view",
      "type": "function"
    },
    {
      "inputs": [
        {
          "internalType": "address",
          "name": "_user",
          "type": "address"
        }
      ],
      "name": "getUserBorrowedItems",
      "outputs": [
        {
          "components": [
            {
              "internalType": "uint256",
              "name": "id",
              "type": "uint256"
            },
            {
              "internalType": "string",
              "name": "name",
              "type": "string"
            },
            {
              "internalType": "string",
              "name": "category",
              "type": "string"
            },
            {
              "internalType": "string",
              "name": "description",
              "type": "string"
            },
            {
              "internalType": "string",
              "name": "location",
              "type": "string"
            },
            {
              "internalType": "uint256",
              "name": "totalQuantity",
              "type": "uint256"
            },
            {
              "internalType": "uint256",
              "name": "availableQuantity",
              "type": "uint256"
            }
          ],
          "internalType": "struct LabInventory.Item[]",
          "name": "",
          "type": "tuple[]"
        },
        {
          "internalType": "uint256[]",
          "name": "",
          "type": "uint256[]"
        }
      ],
      "stateMutability": "view",
      "type": "function"
    },
    {
      "inputs": [
        {
          "internalType": "bytes32",
          "name": "role",
          "type": "bytes32"
        },
        {
          "internalType": "address",
          "name": "account",
          "type": "address"
        }
      ],
      "name": "grantRole",
      "outputs": [],
      "stateMutability": "nonpayable",
      "type": "function"
    },
    {
      "inputs": [
        {
          "internalType": "bytes32",
          "name": "role",
          "type": "bytes32"
        },
        {
          "internalType": "address",
          "name": "account",
          "type": "address"
        }
      ],
      "name": "hasRole",
      "outputs": [
        {
          "internalType": "bool",
          "name": "",
          "type": "bool"
        }
      ],
      "stateMutability": "view",
      "type": "function"
    },
    {
      "inputs": [
        {
          "internalType": "uint256",
          "name": "",
          "type": "uint256"
        },
        {
          "internalType": "uint256",
          "name": "",
          "type": "uint256"
        }
      ],
      "name": "itemBorrowHistory",
      "outputs": [
        {
          "internalType": "uint256",
          "name": "recordId",
          "type": "uint256"
        },
        {
          "internalType": "uint256",
          "name": "itemId",
          "type": "uint256"
        },
        {
          "internalType": "address",
          "name": "borrower",
          "type": "address"
        },
        {
          "internalType": "string",
          "name": "borrowerName",
          "type": "string"
        },
        {
          "internalType": "string",
          "name": "purpose",
          "type": "string"
        },
        {
          "internalType": "uint256",
          "name": "borrowTime",
          "type": "uint256"
        },
        {
          "internalType": "uint256",
          "name": "returnTime",
          "type": "uint256"
        },
        {
          "internalType": "bool",
          "name": "isReturned",
          "type": "bool"
        }
      ],
      "stateMutability": "view",
      "type": "function"
    },
    {
      "inputs": [
        {
          "internalType": "uint256",
          "name": "",
          "type": "uint256"
        }
      ],
      "name": "items",
      "outputs": [
        {
          "internalType": "uint256",
          "name": "id",
          "type": "uint256"
        },
        {
          "internalType": "string",
          "name": "name",
          "type": "string"
        },
        {
          "internalType": "string",
          "name": "category",
          "type": "string"
        },
        {
          "internalType": "string",
          "name": "description",
          "type": "string"
        },
        {
          "internalType": "string",
          "name": "location",
          "type": "string"
        },
        {
          "internalType": "uint256",
          "name": "totalQuantity",
          "type": "uint256"
        },
        {
          "internalType": "uint256",
          "name": "availableQuantity",
          "type": "uint256"
        }
      ],
      "stateMutability": "view",
      "type": "function"
    },
    {
      "inputs": [],
      "name": "nextItemId",
      "outputs": [
        {
          "internalType": "uint256",
          "name": "",
          "type": "uint256"
        }
      ],
      "stateMutability": "view",
      "type": "function"
    },
    {
      "inputs": [],
      "name": "nextRecordId",
      "outputs": [
        {
          "internalType": "uint256",
          "name": "",
          "type": "uint256"
        }
      ],
      "stateMutability": "view",
      "type": "function"
    },
    {
      "inputs": [
        {
          "internalType": "address",
          "name": "_aslabAddress",
          "type": "address"
        }
      ],
      "name": "removeAslab",
      "outputs": [],
      "stateMutability": "nonpayable",
      "type": "function"
    },
    {
      "inputs": [
        {
          "internalType": "bytes32",
          "name": "role",
          "type": "bytes32"
        },
        {
          "internalType": "address",
          "name": "callerConfirmation",
          "type": "address"
        }
      ],
      "name": "renounceRole",
      "outputs": [],
      "stateMutability": "nonpayable",
      "type": "function"
    },
    {
      "inputs": [
        {
          "internalType": "uint256",
          "name": "_itemId",
          "type": "uint256"
        }
      ],
      "name": "returnItem",
      "outputs": [],
      "stateMutability": "nonpayable",
      "type": "function"
    },
    {
      "inputs": [
        {
          "internalType": "bytes32",
          "name": "role",
          "type": "bytes32"
        },
        {
          "internalType": "address",
          "name": "account",
          "type": "address"
        }
      ],
      "name": "revokeRole",
      "outputs": [],
      "stateMutability": "nonpayable",
      "type": "function"
    },
    {
      "inputs": [
        {
          "internalType": "bytes4",
          "name": "interfaceId",
          "type": "bytes4"
        }
      ],
      "name": "supportsInterface",
      "outputs": [
        {
          "internalType": "bool",
          "name": "",
          "type": "bool"
        }
      ],
      "stateMutability": "view",
      "type": "function"
    },
    {
      "inputs": [
        {
          "internalType": "address",
          "name": "",
          "type": "address"
        },
        {
          "internalType": "uint256",
          "name": "",
          "type": "uint256"
        }
      ],
      "name": "userBorrowedCount",
      "outputs": [
        {
          "internalType": "uint256",
          "name": "",
          "type": "uint256"
        }
      ],
      "stateMutability": "view",
      "type": "function"
    }
  ],
  "bytecode": "0x60806040523480156200001157600080fd5b50600180819055506200002e6000801b33620000ca60201b60201c565b50620000617fa49807205ce4d355092ef5a8a18f56e8913cf4a201fbe287825b095693c2177533620000ca60201b60201c565b50620000b47fe82732028448bcd93776a59e3aa432a36d831bc856c48ae8771b18fcc2cf52ad7fa49807205ce4d355092ef5a8a18f56e8913cf4a201fbe287825b095693c21775620001cd60201b60201c565b60016002819055506001600381905550620002c1565b6000620000de83836200023060201b60201c565b620001c257600160008085815260200190815260200160002060000160008473ffffffffffffffffffffffffffffffffffffffff1673ffffffffffffffffffffffffffffffffffffffff16815260200190815260200160002060006101000a81548160ff0219169083151502179055506200015e6200029a60201b60201c565b73ffffffffffffffffffffffffffffffffffffffff168273ffffffffffffffffffffffffffffffffffffffff16847f2f8788117e7eff1d82e926ec794901d17c78024a50270940304540a733656f0d60405160405180910390a460019050620001c7565b600090505b92915050565b6000620001e083620002a260201b60201c565b905081600080858152602001908152602001600020600101819055508181847fbd79b86ffe0ab8e8776151514217cd7cacd52c909f66475c3af44e129f0b00ff60405160405180910390a4505050565b600080600084815260200190815260200160002060000160008373ffffffffffffffffffffffffffffffffffffffff1673ffffffffffffffffffffffffffffffffffffffff16815260200190815260200160002060009054906101000a900460ff16905092915050565b600033905090565b6000806000838152602001908152602001600020600101549050919050565b61347880620002d16000396000f3fe608060405234801561001057600080fd5b50600436106101425760003560e01c806375b238fc116100b857806399c334671161007c57806399c334671461038f578063a217fddf146103bf578063bfb231d2146103dd578063d547741f14610413578063dbde207d1461042f578063fbedd1141461044d57610142565b806375b238fc146102bb5780638218ab7b146102d95780638e97d3da146102f757806391d148541461032857806393d926e51461035857610142565b806333e1a2e11161010a57806333e1a2e1146101fb57806336568abe1461022b5780634ba1d6aa146102475780634c094947146102655780636a8689741461028157806373a0d1971461029f57610142565b806301ffc9a714610147578063044a3fa914610177578063223ed1dd14610193578063248a9ca3146101af5780632f2ff15d146101df575b600080fd5b610161600480360381019061015c91906121eb565b610469565b60405161016e9190612233565b60405180910390f35b610191600480360381019061018c91906122ac565b6104e3565b005b6101ad60048036038101906101a8919061230f565b61053b565b005b6101c960048036038101906101c49190612372565b610822565b6040516101d691906123ae565b60405180910390f35b6101f960048036038101906101f491906123c9565b610841565b005b6102156004803603810190610210919061230f565b610863565b604051610222919061263f565b60405180910390f35b610245600480360381019061024091906123c9565b610ae3565b005b61024f610b5e565b60405161025c91906127d4565b60405180910390f35b61027f600480360381019061027a91906122ac565b610f09565b005b610289610f61565b6040516102969190612805565b60405180910390f35b6102b960048036038101906102b49190612955565b610f67565b005b6102c361124f565b6040516102d091906123ae565b60405180910390f35b6102e1611273565b6040516102ee91906123ae565b60405180910390f35b610311600480360381019061030c91906122ac565b611297565b60405161031f929190612a8f565b60405180910390f35b610342600480360381019061033d91906123c9565b61177c565b60405161034f9190612233565b60405180910390f35b610372600480360381019061036d9190612ac6565b6117e6565b604051610386989796959493929190612b5f565b60405180910390f35b6103a960048036038101906103a49190612beb565b611988565b6040516103b69190612805565b60405180910390f35b6103c76119ad565b6040516103d491906123ae565b60405180910390f35b6103f760048036038101906103f2919061230f565b6119b4565b60405161040a9796959493929190612c2b565b60405180910390f35b61042d600480360381019061042891906123c9565b611c16565b005b610437611c38565b6040516104449190612805565b60405180910390f35b61046760048036038101906104629190612cb6565b611c3e565b005b60007f7965db0b000000000000000000000000000000000000000000000000000000007bffffffffffffffffffffffffffffffffffffffffffffffffffffffff1916827bffffffffffffffffffffffffffffffffffffffffffffffffffffffff191614806104dc57506104db82611e39565b5b9050919050565b7fa49807205ce4d355092ef5a8a18f56e8913cf4a201fbe287825b095693c2177561050d81611ea3565b6105377fe82732028448bcd93776a59e3aa432a36d831bc856c48ae8771b18fcc2cf52ad83610841565b5050565b610543611eb7565b600081118015610554575060025481105b610593576040517f08c379a000000000000000000000000000000000000000000000000000000000815260040161058a90612ded565b60405180910390fd5b6000600660003373ffffffffffffffffffffffffffffffffffffffff1673ffffffffffffffffffffffffffffffffffffffff16815260200190815260200160002060008381526020019081526020016000205411610626576040517f08c379a000000000000000000000000000000000000000000000000000000000815260040161061d90612e59565b60405180910390fd5b600060046000838152602001908152602001600020905080600601600081548092919061065290612ea8565b9190505550600660003373ffffffffffffffffffffffffffffffffffffffff1673ffffffffffffffffffffffffffffffffffffffff168152602001908152602001600020600083815260200190815260200160002060008154809291906106b890612ef0565b91905055506000600560008481526020019081526020016000208054905090505b6000811115610815576000600560008581526020019081526020016000206001836107049190612f19565b8154811061071557610714612f4d565b5b906000526020600020906008020190503373ffffffffffffffffffffffffffffffffffffffff168160020160009054906101000a900473ffffffffffffffffffffffffffffffffffffffff1673ffffffffffffffffffffffffffffffffffffffff1614801561079357508060070160009054906101000a900460ff16155b156108015760018160070160006101000a81548160ff0219169083151502179055504281600601819055508381600001547f33a443717e08c13c5b4683fdd90d1c218ea08301d9997d2d63b72e2aecb6a980336040516107f39190612f7c565b60405180910390a350610815565b50808061080d90612ef0565b9150506106d9565b505061081f611efd565b50565b6000806000838152602001908152602001600020600101549050919050565b61084a82610822565b61085381611ea3565b61085d8383611f06565b50505050565b6060600082118015610876575060025482105b6108b5576040517f08c379a00000000000000000000000000000000000000000000000000000000081526004016108ac90612ded565b60405180910390fd5b60056000838152602001908152602001600020805480602002602001604051908101604052809291908181526020016000905b82821015610ad857838290600052602060002090600802016040518061010001604052908160008201548152602001600182015481526020016002820160009054906101000a900473ffffffffffffffffffffffffffffffffffffffff1673ffffffffffffffffffffffffffffffffffffffff1673ffffffffffffffffffffffffffffffffffffffff16815260200160038201805461098690612fc6565b80601f01602080910402602001604051908101604052809291908181526020018280546109b290612fc6565b80156109ff5780601f106109d4576101008083540402835291602001916109ff565b820191906000526020600020905b8154815290600101906020018083116109e257829003601f168201915b50505050508152602001600482018054610a1890612fc6565b80601f0160208091040260200160405190810160405280929190818152602001828054610a4490612fc6565b8015610a915780601f10610a6657610100808354040283529160200191610a91565b820191906000526020600020905b815481529060010190602001808311610a7457829003601f168201915b5050505050815260200160058201548152602001600682015481526020016007820160009054906101000a900460ff161515151581525050815260200190600101906108e8565b505050509050919050565b610aeb611ff7565b73ffffffffffffffffffffffffffffffffffffffff168173ffffffffffffffffffffffffffffffffffffffff1614610b4f576040517f6697b23200000000000000000000000000000000000000000000000000000000815260040160405180910390fd5b610b598282611fff565b505050565b6060600080600190505b600254811015610bb2576000600460008381526020019081526020016000206000015414610b9f578180610b9b90612ea8565b9250505b8080610baa90612ea8565b915050610b68565b5060008167ffffffffffffffff811115610bcf57610bce61282a565b5b604051908082528060200260200182016040528015610c0857816020015b610bf5612142565b815260200190600190039081610bed5790505b509050600080600190505b600254811015610eff576000600460008381526020019081526020016000206000015414610eec57600460008281526020019081526020016000206040518060e001604052908160008201548152602001600182018054610c7390612fc6565b80601f0160208091040260200160405190810160405280929190818152602001828054610c9f90612fc6565b8015610cec5780601f10610cc157610100808354040283529160200191610cec565b820191906000526020600020905b815481529060010190602001808311610ccf57829003601f168201915b50505050508152602001600282018054610d0590612fc6565b80601f0160208091040260200160405190810160405280929190818152602001828054610d3190612fc6565b8015610d7e5780601f10610d5357610100808354040283529160200191610d7e565b820191906000526020600020905b815481529060010190602001808311610d6157829003601f168201915b50505050508152602001600382018054610d9790612fc6565b80601f0160208091040260200160405190810160405280929190818152602001828054610dc390612fc6565b8015610e105780601f10610de557610100808354040283529160200191610e10565b820191906000526020600020905b815481529060010190602001808311610df357829003601f168201915b50505050508152602001600482018054610e2990612fc6565b80601f0160208091040260200160405190810160405280929190818152602001828054610e5590612fc6565b8015610ea25780601f10610e7757610100808354040283529160200191610ea2565b820191906000526020600020905b815481529060010190602001808311610e8557829003601f168201915b5050505050815260200160058201548152602001600682015481525050838381518110610ed257610ed1612f4d565b5b60200260200101819052508180610ee890612ea8565b9250505b8080610ef790612ea8565b915050610c13565b5081935050505090565b7fa49807205ce4d355092ef5a8a18f56e8913cf4a201fbe287825b095693c21775610f3381611ea3565b610f5d7fe82732028448bcd93776a59e3aa432a36d831bc856c48ae8771b18fcc2cf52ad83611c16565b5050565b60025481565b610f6f611eb7565b600083118015610f80575060025483105b610fbf576040517f08c379a0000000000000000000000000000000000000000000000000000000008152600401610fb690612ded565b60405180910390fd5b6000600460008581526020019081526020016000209050600081600601541161101d576040517f08c379a000000000000000000000000000000000000000000000000000000000815260040161101490613043565b60405180910390fd5b80600601600081548092919061103290612ef0565b9190505550600660003373ffffffffffffffffffffffffffffffffffffffff1673ffffffffffffffffffffffffffffffffffffffff1681526020019081526020016000206000858152602001908152602001600020600081548092919061109890612ea8565b91905055506005600085815260200190815260200160002060405180610100016040528060035481526020018681526020013373ffffffffffffffffffffffffffffffffffffffff16815260200185815260200184815260200142815260200160008152602001600015158152509080600181540180825580915050600190039060005260206000209060080201600090919091909150600082015181600001556020820151816001015560408201518160020160006101000a81548173ffffffffffffffffffffffffffffffffffffffff021916908373ffffffffffffffffffffffffffffffffffffffff160217905550606082015181600301908161119f919061320f565b5060808201518160040190816111b5919061320f565b5060a0820151816005015560c0820151816006015560e08201518160070160006101000a81548160ff0219169083151502179055505050836003547fb5d77503cfa82e641813caa9aca3b388546f636be08c9d316467cce098c0cf5933866040516112219291906132e1565b60405180910390a36003600081548092919061123c90612ea8565b91905055505061124a611efd565b505050565b7fa49807205ce4d355092ef5a8a18f56e8913cf4a201fbe287825b095693c2177581565b7fe82732028448bcd93776a59e3aa432a36d831bc856c48ae8771b18fcc2cf52ad81565b606080600080600190505b600254811015611327576000600660008773ffffffffffffffffffffffffffffffffffffffff1673ffffffffffffffffffffffffffffffffffffffff168152602001908152602001600020600083815260200190815260200160002054111561131457818061131090612ea8565b9250505b808061131f90612ea8565b9150506112a2565b5060008167ffffffffffffffff8111156113445761134361282a565b5b60405190808252806020026020018201604052801561137d57816020015b61136a612142565b8152602001906001900390816113625790505b50905060008267ffffffffffffffff81111561139c5761139b61282a565b5b6040519080825280602002602001820160405280156113ca5781602001602082028036833780820191505090505b509050600080600190505b60025481101561176c576000600660008a73ffffffffffffffffffffffffffffffffffffffff1673ffffffffffffffffffffffffffffffffffffffff168152602001908152602001600020600083815260200190815260200160002054111561175957600460008281526020019081526020016000206040518060e00160405290816000820154815260200160018201805461147090612fc6565b80601f016020809104026020016040519081016040528092919081815260200182805461149c90612fc6565b80156114e95780601f106114be576101008083540402835291602001916114e9565b820191906000526020600020905b8154815290600101906020018083116114cc57829003601f168201915b5050505050815260200160028201805461150290612fc6565b80601f016020809104026020016040519081016040528092919081815260200182805461152e90612fc6565b801561157b5780601f106115505761010080835404028352916020019161157b565b820191906000526020600020905b81548152906001019060200180831161155e57829003601f168201915b5050505050815260200160038201805461159490612fc6565b80601f01602080910402602001604051908101604052809291908181526020018280546115c090612fc6565b801561160d5780601f106115e25761010080835404028352916020019161160d565b820191906000526020600020905b8154815290600101906020018083116115f057829003601f168201915b5050505050815260200160048201805461162690612fc6565b80601f016020809104026020016040519081016040528092919081815260200182805461165290612fc6565b801561169f5780601f106116745761010080835404028352916020019161169f565b820191906000526020600020905b81548152906001019060200180831161168257829003601f168201915b50505050508152602001600582015481526020016006820154815250508483815181106116cf576116ce612f4d565b5b6020026020010181905250600660008973ffffffffffffffffffffffffffffffffffffffff1673ffffffffffffffffffffffffffffffffffffffff16815260200190815260200160002060008281526020019081526020016000205483838151811061173e5761173d612f4d565b5b602002602001018181525050818061175590612ea8565b9250505b808061176490612ea8565b9150506113d5565b5082829550955050505050915091565b600080600084815260200190815260200160002060000160008373ffffffffffffffffffffffffffffffffffffffff1673ffffffffffffffffffffffffffffffffffffffff16815260200190815260200160002060009054906101000a900460ff16905092915050565b6005602052816000526040600020818154811061180257600080fd5b9060005260206000209060080201600091509150508060000154908060010154908060020160009054906101000a900473ffffffffffffffffffffffffffffffffffffffff169080600301805461185890612fc6565b80601f016020809104026020016040519081016040528092919081815260200182805461188490612fc6565b80156118d15780601f106118a6576101008083540402835291602001916118d1565b820191906000526020600020905b8154815290600101906020018083116118b457829003601f168201915b5050505050908060040180546118e690612fc6565b80601f016020809104026020016040519081016040528092919081815260200182805461191290612fc6565b801561195f5780601f106119345761010080835404028352916020019161195f565b820191906000526020600020905b81548152906001019060200180831161194257829003601f168201915b5050505050908060050154908060060154908060070160009054906101000a900460ff16905088565b6006602052816000526040600020602052806000526040600020600091509150505481565b6000801b81565b60046020528060005260406000206000915090508060000154908060010180546119dd90612fc6565b80601f0160208091040260200160405190810160405280929190818152602001828054611a0990612fc6565b8015611a565780601f10611a2b57610100808354040283529160200191611a56565b820191906000526020600020905b815481529060010190602001808311611a3957829003601f168201915b505050505090806002018054611a6b90612fc6565b80601f0160208091040260200160405190810160405280929190818152602001828054611a9790612fc6565b8015611ae45780601f10611ab957610100808354040283529160200191611ae4565b820191906000526020600020905b815481529060010190602001808311611ac757829003601f168201915b505050505090806003018054611af990612fc6565b80601f0160208091040260200160405190810160405280929190818152602001828054611b2590612fc6565b8015611b725780601f10611b4757610100808354040283529160200191611b72565b820191906000526020600020905b815481529060010190602001808311611b5557829003601f168201915b505050505090806004018054611b8790612fc6565b80601f0160208091040260200160405190810160405280929190818152602001828054611bb390612fc6565b8015611c005780601f10611bd557610100808354040283529160200191611c00565b820191906000526020600020905b815481529060010190602001808311611be357829003601f168201915b5050505050908060050154908060060154905087565b611c1f82610822565b611c2881611ea3565b611c328383611fff565b50505050565b60035481565b611c687fa49807205ce4d355092ef5a8a18f56e8913cf4a201fbe287825b095693c217753361177c565b80611c995750611c987fe82732028448bcd93776a59e3aa432a36d831bc856c48ae8771b18fcc2cf52ad3361177c565b5b611cd8576040517f08c379a0000000000000000000000000000000000000000000000000000000008152600401611ccf9061335d565b60405180910390fd5b60008111611d1b576040517f08c379a0000000000000000000000000000000000000000000000000000000008152600401611d12906133c9565b60405180910390fd5b6040518060e00160405280600254815260200186815260200185815260200184815260200183815260200182815260200182815250600460006002548152602001908152602001600020600082015181600001556020820151816001019081611d84919061320f565b506040820151816002019081611d9a919061320f565b506060820151816003019081611db0919061320f565b506080820151816004019081611dc6919061320f565b5060a0820151816005015560c082015181600601559050506002547f0444434676a57f70f8479401c50fb4add3e31052f88f4b35e155b7759e5968e58683604051611e129291906133e9565b60405180910390a260026000815480929190611e2d90612ea8565b91905055505050505050565b60007f01ffc9a7000000000000000000000000000000000000000000000000000000007bffffffffffffffffffffffffffffffffffffffffffffffffffffffff1916827bffffffffffffffffffffffffffffffffffffffffffffffffffffffff1916149050919050565b611eb481611eaf611ff7565b6120f1565b50565b600260015403611ef3576040517f3ee5aeb500000000000000000000000000000000000000000000000000000000815260040160405180910390fd5b6002600181905550565b60018081905550565b6000611f12838361177c565b611fec57600160008085815260200190815260200160002060000160008473ffffffffffffffffffffffffffffffffffffffff1673ffffffffffffffffffffffffffffffffffffffff16815260200190815260200160002060006101000a81548160ff021916908315150217905550611f89611ff7565b73ffffffffffffffffffffffffffffffffffffffff168273ffffffffffffffffffffffffffffffffffffffff16847f2f8788117e7eff1d82e926ec794901d17c78024a50270940304540a733656f0d60405160405180910390a460019050611ff1565b600090505b92915050565b600033905090565b600061200b838361177c565b156120e657600080600085815260200190815260200160002060000160008473ffffffffffffffffffffffffffffffffffffffff1673ffffffffffffffffffffffffffffffffffffffff16815260200190815260200160002060006101000a81548160ff021916908315150217905550612083611ff7565b73ffffffffffffffffffffffffffffffffffffffff168273ffffffffffffffffffffffffffffffffffffffff16847ff6391f5c32d9c69d2a47ea670b442974b53935d1edc7fd64eb21e047a839171b60405160405180910390a4600190506120eb565b600090505b92915050565b6120fb828261177c565b61213e5780826040517fe2517d3f000000000000000000000000000000000000000000000000000000008152600401612135929190613419565b60405180910390fd5b5050565b6040518060e00160405280600081526020016060815260200160608152602001606081526020016060815260200160008152602001600081525090565b6000604051905090565b600080fd5b600080fd5b60007fffffffff0000000000000000000000000000000000000000000000000000000082169050919050565b6121c881612193565b81146121d357600080fd5b50565b6000813590506121e5816121bf565b92915050565b60006020828403121561220157612200612189565b5b600061220f848285016121d6565b91505092915050565b60008115159050919050565b61222d81612218565b82525050565b60006020820190506122486000830184612224565b92915050565b600073ffffffffffffffffffffffffffffffffffffffff82169050919050565b60006122798261224e565b9050919050565b6122898161226e565b811461229457600080fd5b50565b6000813590506122a681612280565b92915050565b6000602082840312156122c2576122c1612189565b5b60006122d084828501612297565b91505092915050565b6000819050919050565b6122ec816122d9565b81146122f757600080fd5b50565b600081359050612309816122e3565b92915050565b60006020828403121561232557612324612189565b5b6000612333848285016122fa565b91505092915050565b6000819050919050565b61234f8161233c565b811461235a57600080fd5b50565b60008135905061236c81612346565b92915050565b60006020828403121561238857612387612189565b5b60006123968482850161235d565b91505092915050565b6123a88161233c565b82525050565b60006020820190506123c3600083018461239f565b92915050565b600080604083850312156123e0576123df612189565b5b60006123ee8582860161235d565b92505060206123ff85828601612297565b9150509250929050565b600081519050919050565b600082825260208201905092915050565b6000819050602082019050919050565b61243e816122d9565b82525050565b61244d8161226e565b82525050565b600081519050919050565b600082825260208201905092915050565b60005b8381101561248d578082015181840152602081019050612472565b60008484015250505050565b6000601f19601f8301169050919050565b60006124b582612453565b6124bf818561245e565b93506124cf81856020860161246f565b6124d881612499565b840191505092915050565b6124ec81612218565b82525050565b60006101008301600083015161250b6000860182612435565b50602083015161251e6020860182612435565b5060408301516125316040860182612444565b506060830151848203606086015261254982826124aa565b9150506080830151848203608086015261256382826124aa565b91505060a083015161257860a0860182612435565b5060c083015161258b60c0860182612435565b5060e083015161259e60e08601826124e3565b508091505092915050565b60006125b583836124f2565b905092915050565b6000602082019050919050565b60006125d582612409565b6125df8185612414565b9350836020820285016125f185612425565b8060005b8581101561262d578484038952815161260e85826125a9565b9450612619836125bd565b925060208a019950506001810190506125f5565b50829750879550505050505092915050565b6000602082019050818103600083015261265981846125ca565b905092915050565b600081519050919050565b600082825260208201905092915050565b6000819050602082019050919050565b600060e0830160008301516126a56000860182612435565b50602083015184820360208601526126bd82826124aa565b915050604083015184820360408601526126d782826124aa565b915050606083015184820360608601526126f182826124aa565b9150506080830151848203608086015261270b82826124aa565b91505060a083015161272060a0860182612435565b5060c083015161273360c0860182612435565b508091505092915050565b600061274a838361268d565b905092915050565b6000602082019050919050565b600061276a82612661565b612774818561266c565b9350836020820285016127868561267d565b8060005b858110156127c257848403895281516127a3858261273e565b94506127ae83612752565b925060208a0199505060018101905061278a565b50829750879550505050505092915050565b600060208201905081810360008301526127ee818461275f565b905092915050565b6127ff816122d9565b82525050565b600060208201905061281a60008301846127f6565b92915050565b600080fd5b600080fd5b7f4e487b7100000000000000000000000000000000000000000000000000000000600052604160045260246000fd5b61286282612499565b810181811067ffffffffffffffff821117156128815761288061282a565b5b80604052505050565b600061289461217f565b90506128a08282612859565b919050565b600067ffffffffffffffff8211156128c0576128bf61282a565b5b6128c982612499565b9050602081019050919050565b82818337600083830152505050565b60006128f86128f3846128a5565b61288a565b90508281526020810184848401111561291457612913612825565b5b61291f8482856128d6565b509392505050565b600082601f83011261293c5761293b612820565b5b813561294c8482602086016128e5565b91505092915050565b60008060006060848603121561296e5761296d612189565b5b600061297c868287016122fa565b935050602084013567ffffffffffffffff81111561299d5761299c61218e565b5b6129a986828701612927565b925050604084013567ffffffffffffffff8111156129ca576129c961218e565b5b6129d686828701612927565b9150509250925092565b600081519050919050565b600082825260208201905092915050565b6000819050602082019050919050565b6000612a188383612435565b60208301905092915050565b6000602082019050919050565b6000612a3c826129e0565b612a4681856129eb565b9350612a51836129fc565b8060005b83811015612a82578151612a698882612a0c565b9750612a7483612a24565b925050600181019050612a55565b5085935050505092915050565b60006040820190508181036000830152612aa9818561275f565b90508181036020830152612abd8184612a31565b90509392505050565b60008060408385031215612add57612adc612189565b5b6000612aeb858286016122fa565b9250506020612afc858286016122fa565b9150509250929050565b612b0f8161226e565b82525050565b600082825260208201905092915050565b6000612b3182612453565b612b3b8185612b15565b9350612b4b81856020860161246f565b612b5481612499565b840191505092915050565b600061010082019050612b75600083018b6127f6565b612b82602083018a6127f6565b612b8f6040830189612b06565b8181036060830152612ba18188612b26565b90508181036080830152612bb58187612b26565b9050612bc460a08301866127f6565b612bd160c08301856127f6565b612bde60e0830184612224565b9998505050505050505050565b60008060408385031215612c0257612c01612189565b5b6000612c1085828601612297565b9250506020612c21858286016122fa565b9150509250929050565b600060e082019050612c40600083018a6127f6565b8181036020830152612c528189612b26565b90508181036040830152612c668188612b26565b90508181036060830152612c7a8187612b26565b90508181036080830152612c8e8186612b26565b9050612c9d60a08301856127f6565b612caa60c08301846127f6565b98975050505050505050565b600080600080600060a08688031215612cd257612cd1612189565b5b600086013567ffffffffffffffff811115612cf057612cef61218e565b5b612cfc88828901612927565b955050602086013567ffffffffffffffff811115612d1d57612d1c61218e565b5b612d2988828901612927565b945050604086013567ffffffffffffffff811115612d4a57612d4961218e565b5b612d5688828901612927565b935050606086013567ffffffffffffffff811115612d7757612d7661218e565b5b612d8388828901612927565b9250506080612d94888289016122fa565b9150509295509295909350565b7f4974656d20646f6573206e6f7420657869737400000000000000000000000000600082015250565b6000612dd7601383612b15565b9150612de282612da1565b602082019050919050565b60006020820190508181036000830152612e0681612dca565b9050919050565b7f596f752068617665206e6f7420626f72726f7765642074686973206974656d00600082015250565b6000612e43601f83612b15565b9150612e4e82612e0d565b602082019050919050565b60006020820190508181036000830152612e7281612e36565b9050919050565b7f4e487b7100000000000000000000000000000000000000000000000000000000600052601160045260246000fd5b6000612eb3826122d9565b91507fffffffffffffffffffffffffffffffffffffffffffffffffffffffffffffffff8203612ee557612ee4612e79565b5b600182019050919050565b6000612efb826122d9565b915060008203612f0e57612f0d612e79565b5b600182039050919050565b6000612f24826122d9565b9150612f2f836122d9565b9250828203905081811115612f4757612f46612e79565b5b92915050565b7f4e487b7100000000000000000000000000000000000000000000000000000000600052603260045260246000fd5b6000602082019050612f916000830184612b06565b92915050565b7f4e487b7100000000000000000000000000000000000000000000000000000000600052602260045260246000fd5b60006002820490506001821680612fde57607f821691505b602082108103612ff157612ff0612f97565b5b50919050565b7f4974656d206e6f7420617661696c61626c650000000000000000000000000000600082015250565b600061302d601283612b15565b915061303882612ff7565b602082019050919050565b6000602082019050818103600083015261305c81613020565b9050919050565b60008190508160005260206000209050919050565b60006020601f8301049050919050565b600082821b905092915050565b6000600883026130c57fffffffffffffffffffffffffffffffffffffffffffffffffffffffffffffffff82613088565b6130cf8683613088565b95508019841693508086168417925050509392505050565b6000819050919050565b600061310c613107613102846122d9565b6130e7565b6122d9565b9050919050565b6000819050919050565b613126836130f1565b61313a61313282613113565b848454613095565b825550505050565b600090565b61314f613142565b61315a81848461311d565b505050565b5b8181101561317e57613173600082613147565b600181019050613160565b5050565b601f8211156131c35761319481613063565b61319d84613078565b810160208510156131ac578190505b6131c06131b885613078565b83018261315f565b50505b505050565b600082821c905092915050565b60006131e6600019846008026131c8565b1980831691505092915050565b60006131ff83836131d5565b9150826002028217905092915050565b61321882612453565b67ffffffffffffffff8111156132315761323061282a565b5b61323b8254612fc6565b613246828285613182565b600060209050601f8311600181146132795760008415613267578287015190505b61327185826131f3565b8655506132d9565b601f19841661328786613063565b60005b828110156132af5784890151825560018201915060208501945060208101905061328a565b868310156132cc57848901516132c8601f8916826131d5565b8355505b6001600288020188555050505b505050505050565b60006040820190506132f66000830185612b06565b81810360208301526133088184612b26565b90509392505050565b7f43616c6c6572206973206e6f7420616e2061646d696e206f722061736c616200600082015250565b6000613347601f83612b15565b915061335282613311565b602082019050919050565b600060208201905081810360008301526133768161333a565b9050919050565b7f5175616e74697479206d7573742062652067726561746572207468616e203000600082015250565b60006133b3601f83612b15565b91506133be8261337d565b602082019050919050565b600060208201905081810360008301526133e2816133a6565b9050919050565b600060408201905081810360008301526134038185612b26565b905061341260208301846127f6565b9392505050565b600060408201905061342e6000830185612b06565b61343b602083018461239f565b939250505056fea264697066735822122075d0ce227ecf61708222bb06dd83a8cd61fbaec8ab025c826e3ca6f3e370bf2664736f6c63430008140033",
  "linkReferences": {},
  "deployedLinkReferences": {}
}